{
  "contractName": "CardIdentityVerification",
  "abi": [
    {
      "anonymous": false,
      "inputs": [
        {
          "indexed": false,
          "internalType": "uint256",
          "name": "userID",
          "type": "uint256"
        },
        {
          "indexed": false,
          "internalType": "string",
          "name": "cardNumber",
          "type": "string"
        }
      ],
      "name": "CardIdentityVerified",
      "type": "event"
    },
    {
      "inputs": [
        {
          "internalType": "uint256",
          "name": "userID",
          "type": "uint256"
        },
        {
          "internalType": "string",
          "name": "cardNumber",
          "type": "string"
        }
      ],
      "name": "verifyCardIdentity",
      "outputs": [],
      "stateMutability": "nonpayable",
      "type": "function"
    },
    {
      "inputs": [
        {
          "internalType": "bytes32",
          "name": "blockHash",
          "type": "bytes32"
        }
      ],
      "name": "getCardDataByBlock",
      "outputs": [
        {
          "internalType": "uint256",
          "name": "",
          "type": "uint256"
        },
        {
          "internalType": "string",
          "name": "",
          "type": "string"
        }
      ],
      "stateMutability": "view",
      "type": "function",
      "constant": true
    }
  ],
  "bytecode": "0x6080806040523461001657610643908161001c8239f35b600080fdfe608060409080825260048036101561001657600080fd5b6000917c010000000000000000000000000000000000000000000000000000000083350490816328aa9c531461038157506354724a1f1461005657600080fd5b3461037d578260031936011261037d578035602491823567ffffffffffffffff9081811161037957366023820112156103795780830135828111610364578751956020601f1992601f946100b0838688850116018b6104ef565b818a523684838301011161036057818b9285859301838d01378a0101526000199384430143811161034b574080156102ef578a528982528a8a2092835461026e578884556001809401978a5197881161025a57505061010f875461052a565b818111610219575b5081938187116001146101895750505050918061017894928899947f0d7d7fd0e067f320fa5ce4bd7ed7d4d9ee8757fccb6fee3fbc245ac02eaea81e999261017e575b50826002029260080260020a900419161790555b519283928361049e565b0390a180f35b88015191503861015a565b8695929491939616878b52848b20948b905b8282106102025750509285927f0d7d7fd0e067f320fa5ce4bd7ed7d4d9ee8757fccb6fee3fbc245ac02eaea81e9b9c9795926101789997600296106101e8575b505050500201905561016e565b8b0151918416600802850a900419169055388080806101db565b808985988294968f0151815501970193019061019b565b878b52828b20838381818b0104830193828b10610251575b0104019084905b828110610246575050610117565b8c8155018490610238565b93508293610231565b60418c9160e060020a634e487b7102835252fd5b87602d608492858f51937f08c379a00000000000000000000000000000000000000000000000000000000085528401528201527f43617264206964656e7469747920616c7265616479207665726966696564206660448201527f6f72207468697320626c6f636b000000000000000000000000000000000000006064820152fd5b50606487601885858f51937f08c379a00000000000000000000000000000000000000000000000000000000085528401528201527f426c6f636b2068617368206e6f7420617661696c61626c6500000000000000006044820152fd5b838b60118a60e060020a634e487b7102835252fd5b8a80fd5b858760418660e060020a634e487b7102835252fd5b8580fd5b5080fd5b9190503461049a57602036600319011261049a57803583528260205283832092606083019083821067ffffffffffffffff83111761048457508452825482526103df60026103d160018601610568565b946020850195865201610568565b8483015281511561040157506103fd9051915192519283928361049e565b0390f35b60849060208551917f08c379a0000000000000000000000000000000000000000000000000000000008352820152602860248201527f4e6f2063617264206964656e7469747920766572696669656420666f7220746860448201527f697320626c6f636b0000000000000000000000000000000000000000000000006064820152fd5b8060418460e060020a634e487b71026024945252fd5b8280fd5b90929192815260209260408483015280519081604084015260005b8281106104db57505060609293506000838284010152601f8019910116010190565b8181018601518482016060015285016104b9565b90601f8019910116810190811067ffffffffffffffff82111761051157604052565b60e060020a634e487b7102600052604160045260246000fd5b906001600283049216801561055e575b602083101461054557565b60e060020a634e487b7102600052602260045260246000fd5b91607f169161053a565b906040519182600082549261057c8461052a565b9081845260019485811690816000146105eb57506001146105a8575b50506105a6925003836104ef565b565b9093915060005260209081600020936000915b8183106105d35750506105a693508201013880610598565b855488840185015294850194879450918301916105bb565b9150506105a694506020925060ff19168284015215158102820101388061059856fea2646970667358221220e41f44a35ea510d92c230f37ec62160d5aa467f4de7f109b4bf75699965af6b064736f6c63430008110033",
  "immutableReferences": {},
  "source": "// SPDX-License-Identifier: GPL-3.0\r\npragma solidity >=0.7.0 <0.9.0;\r\n\r\npragma solidity ^0.8.0;\r\n\r\ncontract CardIdentityVerification {\r\n    struct CardData {\r\n        uint256 userID;\r\n        string cardNumber;\r\n        string secretKey;\r\n    }\r\n    \r\n    mapping(bytes32 => CardData) private cardDataByBlock;\r\n    \r\n    event CardIdentityVerified(uint256 userID, string cardNumber);\r\n    \r\n    function verifyCardIdentity(uint256 userID, string memory cardNumber) public {\r\n        bytes32 blockHash = blockhash(block.number - 1); // Hash of the previous block\r\n        \r\n        require(blockHash != bytes32(0), \"Block hash not available\"); // Ensure previous block hash is available\r\n        \r\n        CardData storage cardData = cardDataByBlock[blockHash];\r\n        \r\n        require(cardData.userID == 0, \"Card identity already verified for this block\");\r\n        \r\n        cardData.userID = userID;\r\n        cardData.cardNumber = cardNumber;\r\n        \r\n        emit CardIdentityVerified(userID, cardNumber);\r\n    }\r\n    \r\n    function getCardDataByBlock(bytes32 blockHash) public view returns (uint256, string memory) {\r\n        CardData memory cardData = cardDataByBlock[blockHash];\r\n        \r\n        require(cardData.userID != 0, \"No card identity verified for this block\");\r\n        \r\n        return (cardData.userID, cardData.cardNumber);\r\n    }\r\n}\r\n",
  "sourcePath": "C:\\Users\\Miloud\\Desktop\\kk\\contracts\\identityCard.sol",
  "compiler": {
    "name": "solc",
    "version": "0.8.17+commit.8df45f5f.Emscripten.clang"
  },
  "schemaVersion": "3.4.13",
  "updatedAt": "2023-06-04T23:29:36.370Z",
  "networkType": "ethereum",
  "devdoc": {
    "kind": "dev",
    "methods": {},
    "version": 1
  },
  "userdoc": {
    "kind": "user",
    "methods": {},
    "version": 1
  }
}